S01700004763634170706C69636174696F6E322E737265635A
S214080000B8080020590308005503080055030800DF
S21408001055030800550308005503080000000000B3
S2140800200000000000000000000000005503080063
S2140800305503080000000000550308005503080093
S2140800405503080055030800550308005503080023
S2140800505503080055030800550308005503080013
S21408006005090800550308000000000055030800AD
S2140800705503080055030800550308000000000053
S2140800800000000055030800550308005503080043
S21408009055030800550308005503080055030800D3
S2140800A05503080000000000550308005503080023
S2140800B055030800550308005503080055030800B3
S2140800C055030800550308005503080055030800A3
S2140800D05503080055030800550308005503080093
S2140800E0550308005503080055030800D502080004
S2140800F05503080010B5054C237833B9044B13B1E3
S2140801000448AFF300800123237010BD3404002098
S21408011000000000381408000C4B43B10C4810B51A
S2140801200C49AFF300800C48036823B910BD0A4891
S214080130036833B97047094B002BF7D0BDE8104069
S2140801401847064B002BF5D0184700BF00000000E4
S214080150381408003804002038140800000000008E
S214080160082998BF082A2DE9F04102EB010665D850
S214080170082ED4BF00240124002C5FD14FF440720F
S214080180304D27462B684FF0005E23F001032B60A6
S2140801902B692D4B4FF0807C5A641A6FA3F50063C9
S2140801A022F00302C3F870280322C3F80428C3F811
S2140801B06428264A4FF00108C3F80C21D3F800211A
S2140801C042F40062C3F8002168610A462046B2423B
S2140801D013DD00224FF000554FF04076194B8A4247
S2140801E022DB4FF400611A4A586051601A680020F2
S2140801F042F001021A60BDE8F081530103F1402481
S21408020004F530242B44C4F80472C3F808E2C4F892
S21408021000C2D3F81C4244F40004C3F81C4208FA8F
S21408022002F318430132D2E703EB4214C4F808522B
S21408023002F1100464011E510132D0E70120BDE826
S214080240F08100BF00400B40000E0E402B1000103F
S21408025000E100E002220121004B18476101080076
S214080260F0B54F0107F1402303F53023D3F81022E9
S21408027012022BD50024D3F81452D3F81862D3F8F8
S21408028008220330C2F38A4220F8032CD3F810223F
S214080290C2F3034200F8012C94420EDB4FF0807242
S2140802A00B4B103149015A503B44D3F81C2200200E
S2140802B042F40002C3F81C22F0BD032CD5BF05701B
S2140802C006702D0A360A01340130E5E70120F0BD34
S2140802D000400B40F0B5184B85B01C6914F0060FAB
S2140802E00FD014F0020F154E17D0012101A8144B99
S2140802F098470025134F9DF806309D4214DB124898
S214080300B047E30742BF01220B4B9A604FF40062E6
S2140803100E4BC3F8842105B0F0BD620701D5022153
S214080320E4E70B48B047E4E701AB2B44D9783846F6
S214080330B0470135DFE700BF00400B4065070800FF
S21408034061020800D3130800D713080000E100E094
S214080350A8130800FEE7000008B5104A104B9A429A
S21408036010D100210F4B104A934214D30F4B104A5A
S21408037023F0604323F07F0393600E4B98470E4BA1
S2140803809847FEE70D49043A8B42EAD252F8040F22
S21408039043F8040BF8E743F8041BE5E738140800AD
S2140803A00000002034040020B804002000000800E4
S2140803B000ED00E039120800590408003404002053
S2140803C04FF48063174A1360C2F80032164B1A6A55
S2140803D0D20120D5154A1A629A6ED103FCD51A6B3B
S2140803E022F0030242F001021A639A6E1207FCD545
S2140803F00F4A9A629A6E9007FCD511221A639A6E73
S2140804001107FCD512221A639A6E1207FCD5094A00
S214080410094B1A607047094A1A629A6ED007FCD5CB
S214080420D8E700BF000A0E4000060E40090837014C
S214080430013F0D2000BD0105000000200908370017
S21408044042F2D00358430023834200DB704700BFC4
S2140804500133F9E7000000002DE9F84F0FF2980B7A
S214080460DBE900AB264B9847264B9847264B274890
S2140804709847274B98474FF4004200240025254B01
S21408048025485A60A3F545631A68A04642F4002238
S2140804901A601A68A94642F480121A601A6942F469
S2140804A000221A611A6942F480121A611A6B42F421
S2140804B000221A631A6B42F480121A63174B984785
S2140804C020462946164B984752465B4620462946FC
S2140804D0144CA0470446144B64200D46134E984708
S2140804E00022134B2046B0470028E9D044464D4624
S2140804F0E6E700BFAFF300807B14AE47E17A843F9F
S214080500C103080075080800550208006531140084
S21408051085070800501A0E40DA1308006507080019
S214080520E90708006109080041040800E511080009
S2140805300000F03F2DE9F8430C1E05462FDD034664
S214080540581B13F8011B0029FAD18442CCBF241A81
S2140805500C4612F0020F0CBF20263026D30724D4F0
S2140805602746DFF858905FFA86F8002F19DC24EA49
S214080570E473E41ADFF844905F1B07EB050815F8E8
S214080580010BA0B925460D4FF6B2002D11DC002C44
S214080590ACBF08EB040008F10000BDE8F88320268D
S2140805A0DCE74046C847013FDFE70023E2E7C847E5
S2140805B0E3E73046B847013DE7E700BFE90808002B
S2140805C02DE9FF41DDF8288015461F46044660B928
S2140805D030238DF805008DF804304246394601A8C8
S2140805E01A4B984704B0BDE8F0812AB10A291AD1F7
S2140805F0002818DA01254442002304AE06F8013D17
S2140806000B9B3A3B8CB93DB1DFB118F0020F18D0FE
S2140806102D200F4B9847013F4246394630460B4B34
S21408062098472844DEE70025E6E7B4FBF1F201FB2D
S2140806301244092CC8BFE418303406F8014D144695
S214080640E0E72D23013E33700025E5E73505080071
S214080650E90808002DE9F04F80460E4614460025A6
S214080660DFF8F8A0DFF8F8903A4F85B0337823B172
S214080670252B65D17378701C33B9B8F1000F63D198
S214080680284605B0BDE8F08F252B58D02D2B0ABF7D
S21408069001220022B01C0378411C302B18D00023FE
S2140806A04FF00A0B01780646A1F1300E5FFA8EFC71
S2140806B0BCF1090F00F101000ED973290FD120688B
S2140806C01946254B0434002808BF1846C84711E0C9
S2140806D042F002020846DEE70BFB03E3E2E7642982
S2140806E00BD1612100922046012201910A2100685F
S2140806F00434B84705440136B8E7782906D12046B9
S21408070061210191009210210022F0E7582902D1B8
S21408071020464121F5E7752905D16121009220463A
S21408072001910022E2E76329E5D1216803A88DF844
S2140807300C10002104348DF80D101946C6E706463D
S2140807403078D0470135D6E70022D8F800301A703E
S21408075096E700BFC1050800E8130800E908080086
S214080760350508000FB407B504AA52F8041B044B55
S21408077001920020984703B05DF804EB04B0704778
S21408078055060800144BD3F8002142F01002C3F8AF
S2140807900021D3F80821D206FBD5104B5A6842F43C
S2140807A000225A601A6F42F400221A672A220C4B5B
S2140807B01A600B22C3F8A02249F64042C3F8AC22BE
S2140807C01A6A22F440321A6249F28802C3F8A4224E
S2140807D020225A60704700BF00060E4000120E40E6
S2140807E0004009400000000070B515A3D3E90023B7
S2140807F0194E04460D46B047E8B913A3D3E90023BB
S21408080020462946154EB04710B10FA5D5E9004534
S21408081022462B46124C00201249A0470CA3D3E9C7
S2140808200023114CA047114B98470122104BC3F8E0
S214080830A8029A6270BD02A5D5E90045E8E700BFA0
S2140808400AD7A3703D0AA73FE27A14AE47E1BA3F3B
S214080850000000000088E340A9110800E511080020
S2140808605D0908000000F03FC50C0800F9110800F3
S2140808700040094000224FF44071184B1A705A7015
S214080880174B596459601A6F186FA3F50063024036
S21408089022F44072C3F87028C3F864184FF48072C4
S2140808A0AC211A61C3F8001240F22321C3F82012C3
S2140808B04FF40061C3F8041240F20221C3F8201373
S2140808C04FF0FF31C3F80C12E121C3F808120549AE
S2140808D00A605022C3F80022704700BF5004002068
S2140808E0000E0E4000E100E0054B5A69910705D559
S2140808F0D8615A699205FCD50020704701207047D8
S21408090000080E4038B50F4D6B6913F0E00F1CBF9A
S2140809104FF4A8722A60DB0713D50B4C627821784F
S214080920531C03F03F038B4207D1084B08489847EF
S2140809306278AB691444A37038BDA96922449170E3
S214080940637038BD00080E40500400206507080094
S214080950EF13080081F0004102E000BF83F0004377
S21408096030B54FEA41044FEA430594EA050F08BF3D
S21408097090EA020F1FBF54EA000C55EA020C7FEA01
S214080980645C7FEA655C00F0E2804FEA5454D4EB7E
S2140809905555B8BF6D420CDD2C4480EA020281EA48
S2140809A0030382EA000083EA010180EA020281EA80
S2140809B00303362D88BF30BD11F0004F4FEA0131D2
S2140809C04FF4801C4CEA113102D0404261EB4101E1
S2140809D013F0004F4FEA03334CEA133302D0524267
S2140809E063EB430394EA050F00F0A780A4F1010423
S2140809F0D5F1200E0DDB02FA0EFC22FA05F280185D
S214080A0041F1000103FA0EF2801843FA05F3594142
S214080A100EE0A5F120050EF1200E012A03FA0EFCC1
S214080A2028BF4CF0020C43FA05F3C01851EBE371EB
S214080A3001F0004507D54FF0000EDCF1000C7EEB08
S214080A4000006EEB0101B1F5801F1BD3B1F5001F46
S214080A500CD349085FEA30004FEA3C0C04F1010465
S214080A604FEA445212F5800F80F09A80BCF1004F8E
S214080A7008BF5FEA500C50F1000041EB045141EA10
S214080A80050130BD5FEA4C0C404141EB010111F411
S214080A90801FA4F10104E9D191F0000F04BF0146BC
S214080AA00020B1FA81F308BF2033A3F10B03B3F19A
S214080AB020020CDA0C3208DD02F1140CC2F10C022A
S214080AC001FA0CF021FA02F10CE002F11402D8BF88
S214080AD0C2F1200C01FA02F120FA0CFCDCBF41EA54
S214080AE00C019040E41AA2BF01EB0451294330BD23
S214080AF06FEA04041F3C1CDA0C340EDC04F1140400
S214080B00C4F1200220FA04F001FA02F340EA0300D6
S214080B1021FA04F345EA030130BDC4F10C04C4F11C
S214080B20200220FA02F001FA04F340EA03002946FC
S214080B3030BD21FA04F0294630BD94F0000F83F446
S214080B40801306BF81F480110134013D4EE77FEA29
S214080B50645C18BF7FEA655C29D094EA050F08BF75
S214080B6090EA020F05D054EA000C04BF1946104656
S214080B7030BD91EA030F1EBF0021002030BD5FEA9A
S214080B80545C05D14000494128BF41F0004130BDC2
S214080B9014F580043CBF01F5801130BD01F0004516
S214080BA045F0FE4141F470014FF0000030BD7FEA89
S214080BB0645C1ABF194610467FEA655C1CBF0B4684
S214080BC0024650EA013406BF52EA033591EA030F9B
S214080BD041F4002130BD00BF90F0000F04BF002193
S214080BE0704730B54FF4806404F132044FF00005C6
S214080BF04FF0000150E700BF90F0000F04BF00213F
S214080C00704730B54FF4806404F1320410F00045A4
S214080C1048BF40424FF000013EE700BF42004FEA9F
S214080C20E2014FEA31014FEA02701FBF12F07F431C
S214080C3093F07F4F81F06051704792F0000F14BF19
S214080C4093F07F4F704730B54FF4607401F000455D
S214080C5021F0004120E700BF50EA010208BF7047B4
S214080C6030B54FF000050AE050EA010208BF7047A9
S214080C7030B511F0004502D5404261EB41014FF412
S214080C80806404F132045FEA915C3FF4DCAE4FF016
S214080C9003025FEADC0C18BF03325FEADC0C18BFFD
S214080CA0033202EBDC02C2F1200300FA03FC20FA4E
S214080CB002F001FA03FE40EA0E0021FA02F114449B
S214080CC0C1E600BF70B54FF0FF0C4CF4E06C1CEAB0
S214080CD011541DBF1CEA135594EA0C0F95EA0C0F25
S214080CE000F0DEF82C4481EA030621EA4C5123EA98
S214080CF04C5350EA013518BF52EA033541F48011C7
S214080D0043F4801338D0A0FB02CE4FF00005E1FB79
S214080D1002E506F00042E0FB03E54FF00006E1FBC3
S214080D2003569CF0000F18BF4EF0010EA4F1FF0406
S214080D30B6F5007F64F5407404D25FEA4E0E6D4146
S214080D4046EB060642EAC62141EA55514FEAC52057
S214080D5040EA5E504FEACE2EB4F1FD0C88BFBCF5D3
S214080D60E06F1ED8BEF1004F08BF5FEA500E50F184
S214080D70000041EB045170BD06F0004646EA01014A
S214080D8040EA020081EA0301B4EB5C04C2BFD4EB7C
S214080D900C0541EA045170BD41F480114FF0000E75
S214080DA0013C00F3AB8014F1360FDEBF002001F0E3
S214080DB0004170BDC4F10004203C35DA0C341BDC5D
S214080DC004F11404C4F1200500FA05F320FA04F02F
S214080DD001FA05F240EA020001F0004221F0004163
S214080DE010EBD37021FA04F642EB06015EEA430ED6
S214080DF008BF20EAD37070BDC4F10C04C4F1200506
S214080E0000FA04F320FA05F001FA04F240EA0200B8
S214080E1001F0004110EBD37041F100015EEA430E89
S214080E2008BF20EAD37070BDC4F1200500FA05F2A9
S214080E304EEA020E20FA04F301FA05F243EA020328
S214080E4021FA04F001F0004121FA04F220EA020037
S214080E5000EBD3705EEA430E08BF20EAD37070BD7D
S214080E6094F0000F0FD101F00046400041EB01015D
S214080E7011F4801F08BF013CF7D041EA060195F03F
S214080E80000F18BF704703F00046520043EB0303F9
S214080E9013F4801F08BF013DF7D043EA06037047E6
S214080EA094EA0C0F0CEA135518BF95EA0C0F0CD0F1
S214080EB050EA410618BF52EA4306D1D181EA030137
S214080EC001F000414FF0000070BD50EA410606BF31
S214080ED01046194652EA430619D094EA0C0F02D176
S214080EE050EA013613D195EA0C0F05D152EA0336BB
S214080EF01CBF104619460AD181EA030101F00041D9
S214080F0041F0FE4141F470014FF0000070BD41F021
S214080F10FE4141F4780170BD70B54FF0FF0C4CF4FB
S214080F20E06C1CEA11541DBF1CEA135594EA0C0F1A
S214080F3095EA0C0F00F0A7F8A4EB050481EA030E67
S214080F4052EA03354FEA013100F088804FEA03334E
S214080F504FF0805545EA131343EA12634FEA02221C
S214080F6045EA111545EA10654FEA00260EF00041DD
S214080F709D4208BF964244F1FD0404F5407402D22F
S214080F805B084FEA3202B61A65EB03055B084FEAC0
S214080F9032024FF480104FF4002CB6EB020E75EBBD
S214080FA0030E22BFB61A754640EA0C005B084FEAE5
S214080FB03202B6EB020E75EB030E22BFB61A754662
S214080FC040EA5C005B084FEA3202B6EB020E75EBAD
S214080FD0030E22BFB61A754640EA9C005B084FEA25
S214080FE03202B6EB020E75EB030E22BFB61A754632
S214080FF040EADC0055EA060E18D04FEA051545EA21
S21408100016754FEA06164FEAC30343EA52734FEAC9
S214081010C2025FEA1C1CC0D111F4801F0BD141EA42
S21408102000014FF000004FF0004CB6E711F4801FA7
S21408103004BF01430020B4F1FD0C88BFBCF5E06F87
S2140810403FF6AFAEB5EB030C04BFB6EB020C5FEA97
S214081050500C50F1000041EB045170BD0EF0004EEC
S2140810604EEA113114EB5C04C2BFD4EB0C0541EA1E
S214081070045170BD41F480114FF0000E013C90E61B
S21408108045EA060E8DE60CEA135594EA0C0F08BFDF
S21408109095EA0C0F3FF43BAF94EA0C0F0AD150EADE
S2140810A001347FF434AF95EA0C0F7FF425AF104671
S2140810B019462CE795EA0C0F06D152EA03353FF499
S2140810C0FDAE1046194622E750EA410618BF52EA16
S2140810D043067FF4C5AE50EA41047FF40DAF52EAEA
S2140810E043057FF4EBAE12E74FF0FF3C06E000BF87
S2140810F04FF0010C02E000BF4FF0010C4DF804CD94
S2140811004FEA410C7FEA6C5C4FEA430C18BF7FEA53
S2140811106C5C1BD001B050EA410C0CBF52EA430C81
S21408112091EA030F02BF90EA020F0020704710F101
S214081130000F91EA030F58BF994208BF90422CBF90
S214081140D8176FEAE37040F0010070474FEA410C89
S2140811507FEA6C5C02D150EA013C07D14FEA430CA7
S2140811607FEA6C5CD6D152EA033CD3D05DF8040B18
S214081170704700BF8446104662468C46194663464A
S21408118000E000BF01B5FFF7B7FF002848BF10F121
S214081190000F01BD4DF808EDFFF7F4FF0CBF012066
S2140811A000205DF808FB00BF4DF808EDFFF7EAFFE2
S2140811B034BF012000205DF808FB00BF4DF808ED9D
S2140811C0FFF7E0FF94BF012000205DF808FB00BF92
S2140811D04DF808EDFFF7CEFF94BF012000205DF81C
S2140811E008FB00BF4DF808EDFFF7C4FF34BF012029
S2140811F000205DF808FB00BF4A0011D212F5001265
S21408120011D20DD56FF47873B3EB62520ED44FEA51
S214081210C12343F0004343EA505323FA02F07047D1
S2140812204FF00000704750EA013002D14FF0FF300F
S21408123070474FF00000704770B50F4E0F4D761B85
S214081240B61018BF002405D0013455F8043B98475B
S214081250A642F9D10A4E0B4D00F0DCF8761BB61004
S21408126018BF002406D0013455F8043B9847A64218
S214081270F9D170BD70BD00BF201408002014080006
S2140812802814080020140800024B13B1024800F086
S21408129005B8704700000000A912080000230146A0
S2140812A01A46184600F01EB838B50A4C0A4D641B94
S2140812B0A4100AD004F18043013B05EB8305013CEA
S2140812C055F804399847002CF9D1BDE8384000F0A5
S2140812D0ABB800BF3814080034140800704700BFC5
S2140812E0704700BF2DE9F8432C4D064628689846F7
S2140812F00F469146FFF7F2FF294B1C68D4F8483191
S214081300002B3ED05A681F2A1CDC02F1010E76B16B
S214081310012103EB8204C4F88890D3F88801914031
S2140813200843022EC3F88801C4F8088123D0023285
S214081330C3F804E0286843F82270FFF7D1FF0020BE
S214081340BDE8F883174B0BB34FF4C870AFF30080B3
S2140813500346D8B10020D4F848114FF0010E586063
S21408136019600246C4F84831C3F88801C3F88C01EE
S214081370002EDCD0CCE7D3F88C010143C3F88C11DF
S214081380D5E704F5A673C4F84831BBE72868FFF725
S214081390A7FF4FF0FF30BDE8F88300BF30040020F9
S2140813A0101408000000000043414E30206D65739D
S2140813B073616765206172726976656420696E205C
S2140813C06E6F6E2D75736564206D61696C626F78DB
S2140813D00A0D00257520000D0D00456E74657269AE
S2140813E06E67206C6F6F7000286E756C6C290045F0
S2140813F052523A2055415254205258206275666619
S21408140065722069732066756C6C0A0D0000000012
S21408141008000020F8B500BFF8BC08BC9E46704718
S2140814208912080019010800F8B500BFF8BC08BC06
S20C0814309E467047F50008000F
S21408143800093D000000000000000000F40200203B
S2140814485C030020C4030020000000000000000021
S2140814580000000000000000000000000000000077
S2140814680000000000000000000000000000000067
S2140814780000000000000000000000000000000057
S2140814880000000000000000000000000000000047
S2140814980000000000000000000000000000000037
S2140814A80000000000000000000000000000000027
S2140814B80000000000000000000000000000000017
S2140814C80000000000000000000000000000000007
S2140814D800000000000000000000000000000000F7
S2140814E801000000000000000E33CDAB34126DE694
S2140814F8ECDE05000B0000000000000000000000FD
S21408150800000000000000000000000000000000C6
S21408151800000000000000000000000000000000B6
S21408152800000000000000000000000000000000A6
S2140815380000000000000000000000000000000096
S20808186894040020B7
S804080000F3
