:100000000C9460030C947D030C947D030C94DB032F
:100010000C947D030C947D030C947D030C947D0360
:100020000C947D030C947D030C947D030C947D0350
:100030000C947D030C947D030C947D030C947D0340
:100040000C947D030C947D030C947D030C947D0330
:100050000C947D030C947D030C947D030C947D0320
:100060000C947D030C947D030C947D030C947D0310
:1000700000000000005C00000C000C007C287C28C4
:1000800058DC68002410480028542840000C000068
:10009000007884008478000054385400107C1000EC
:1000A00080400000101010000040000060100C00A4
:1000B00038543800487C40004864580044542C00B0
:1000C0001C107C005C5424003854240064140C0080
:1000D00068542C0048543800004800008048000054
:1000E0001028440028282800442810000454080040
:1000F00038445C00781478007C5428003844280088
:100100007C4438007C5444007C140400384474005F
:100110007C107C00447C440020403C007C106C003F
:100120007C4040007C187C0078103C00384438004B
:100130007C1408003844B8007C146800485424003B
:10014000047C04007C407C003C603C007C307C00F3
:100150006C106C000C700C0064544C00007C44006B
:100160000C106000447C00000804080080808000BF
:1001700000040800304878007C48300030484800CF
:1001800030487C00306850001078140090A8780047
:100190007C08700050744000808074007C106800FF
:1001A000447C4000781078007808700030483000B7
:1001B000F82810003048F80078100800505828003F
:1001C000083C4800384078003840380078207800F3
:1001D0004830480098A0780048685800107884009B
:1001E000007C00008478100008040804000000006F
:1001F0000000005F00000007000700147F147F1458
:10020000242A7F2A1223130864623649552250009B
:1002100005030000001C2241000041221C00082AA6
:100220001C2A0808083E080800503000000808088A
:100230000808006060000020100804023E51494593
:100240003E00427F400042615149462141454B31C9
:100250001814127F1027454545393C4A4949300159
:10026000710905033649494936064949291E0036B0
:100270003600000056360000000814224114141401
:10028000141441221408000201510906324979412F
:100290003E7E1111117E7F494949363E414141223E
:1002A0007F4141221C7F494949417F090901013EA3
:1002B000414151327F0808087F00417F41002040C2
:1002C000413F017F081422417F404040407F0204AB
:1002D000027F7F0408107F3E4141413E7F090909AA
:1002E000063E4151215E7F09192946464949493157
:1002F00001017F01013F4040403F1F2040201F7F00
:100300002018207F631408146303047804036151E8
:1003100049454300007F4141020408102041417FCC
:100320000000040201020440404040400001020479
:100330000020545454787F4844443838444444207E
:10034000384444487F3854545418087E0901020840
:100350001454543C7F0804047800447D400020403D
:10036000443D00007F10284400417F40007C041879
:1003700004787C0804047838444444387C14141409
:1003800008081414187C7C080404084854545420A9
:10039000043F4440203C4040207C1C2040201C3C2A
:1003A0004030403C44281028440C5050503C446499
:1003B000544C44000836410000007F0000004136E4
:1003C000080002010302010000000000000000001C
:1003D000065F5F0600000000070700070700001423
:1003E0007F7F147F7F1400242E6B6B3A120000462F
:1003F0006630180C666200307A4F5D377A48000428
:1004000007030000000000001C3E634100000000E4
:1004100041633E1C000000082A3E1C1C3E2A0808BE
:10042000083E3E0808000000A0E060000000000850
:100430000808080808000000006060000000006074
:1004400030180C060301003E7F594D7F3E000042EC
:10045000427F7F40400000627359496F660000226E
:100460006349497F360000181C16137F7F10002750
:100470006745457D3900003C7E4B497930000003DB
:100480006371190F070000367F49497F3600000667
:100490004F49693F1E000000006C6C000000000026
:1004A000A0EC6C00000000081C3663410000001442
:1004B00014141414140000004163361C08000002D8
:1004C0000351590F0600003E7F415D5D1F1E007CF9
:1004D0007E13137E7C0000417F7F49497F36001CDC
:1004E0003E634141632200417F7F41637F1C0041A5
:1004F0007F7F495D416300417F7F491D0103001CEF
:100500003E6341517372007F7F08087F7F000000C7
:10051000417F7F41000000307040417F3F0100413A
:100520007F7F081C776300417F7F41406070007FC0
:100530007F060C067F7F007F7F060C187F7F001CE4
:100540003E6341633E1C00417F7F49090F06001E48
:100550003F21717F5E0000417F7F19396F46002681
:10056000674D597B32000003417F7F410300007FCC
:100570007F40407F7F00001F3F60603F1F00007F83
:100580007F3018307F7F0063771C081C776300077B
:100590004F78784F0700006773594D47637100002B
:1005A0007F7F41410000000103060C18306000000D
:1005B00041417F7F000000080C0603060C08008004
:1005C000808080808080800000030704000000207D
:1005D0007454543C784000413F7F44447C38003898
:1005E0007C44446C280000307848493F7F40003804
:1005F0007C54545C180000487E7F49030200009838
:10060000BCA4A4F87C0400417F7F08047C7800002F
:10061000447D7D4000000040C484FD7D0000004119
:100620007F7F10386C440000417F7F400000007CD9
:100630007C0C180C7C78007C7C04047C78000038EE
:100640007C44447C38000084FCF8A4243C18001846
:100650003C24A4F8FC8400447C78441C1800004826
:100660005C54547424000000043E7F442400003C89
:100670007C40403C7C40001C3C60603C1C00003CDA
:100680007C6030607C3C00446C3810386C44009CCA
:10069000BCA0A0FC7C00004C64745C4C64000008AE
:1006A000083E7741410000000000777700000041DC
:1006B00041773E0808000002030103020301000025
:1006C00011241FBECFEFD4E0DEBFCDBF11E0A0E00C
:1006D000B1E0E0E7F5E102C005900D92A23CB10760
:1006E000D9F721E0A2ECB1E001C01D92AC3CB20709
:1006F000E1F70E9455050C94B60A0C940000EBE853
:10070000F0E0808180648083EAE8F0E080818160AD
:10071000808380818860808381B3806181BB0895FC
:100720000F931F93CF93DF93C0E0D4E188811F9292
:100730008F938AE091E09F938F930E943106888186
:100740001F928F930FE011E01F930F930E943106C9
:1007500088811F928F931F930F930E943106888187
:100760001F928F9383E191E09F938F930E943106B4
:1007700018828DB79EB740960FB6F8949EBF0FBEF5
:100780008DBFDF91CF911F910F9108955D9BFECF9B
:100790008CB908955F9BFECF8CB1089590BD89B947
:1007A00088E18AB98EE880BD6AEC73E086EC93E05C
:1007B0000E94E60508951F920F920FB60F92112422
:1007C0000F900FBE0F901F90189580930010089502
:1007D0008093001208958EEA0E94E50381EA0E9448
:1007E000E5038AED0E94E50382E10E94E50388ECBF
:1007F0000E94E50388EA0E94E5038FE30E94E50377
:1008000085ED0E94E50380E80E94E50381E80E94EF
:10081000E50380E50E94E50389ED0E94E50381E29E
:100820000E94E50380E20E94E50382E00E94E50366
:100830008BED0E94E50380E30E94E5038DEA0E94B0
:10084000E50380E00E94E50384EA0E94E50386EA6E
:100850000E94E5038FEA0E94E503089580550E94F7
:10086000E5030895CF93C82F8F700E94E5038C2F66
:1008700082958F70805F0E94E503CF910895CF939A
:10088000DF930E942E04C0E0D0E004C080E00E940C
:10089000E8032196C038D105CCF3DF91CF910895BC
:1008A000CF93DF93C0E0D0E004C08C2F0E943F04C0
:1008B0002196C830D105CCF3DF91CF9108950E94E5
:1008C000500480E00E942E0480E00E9432040895CB
:1008D0001F93CF93DF93D82FC62F6430A9F410C095
:1008E000ED2FF0E0B097EE0FFF1FEE0FFF1FE10FAF
:1008F000F11DE059FF4F84910E94E8031F5F01C082
:1009000010E01C1768F32EC06530A9F010E028C075
:100910008D2F90E08097FC01EE0FFF1FEE0FFF1F61
:10092000E80FF91FE10FF11DE451FE4F84910E9481
:10093000E8031F5F01C010E01C1750F313C0ED2F38
:10094000F0E0B097EE0FFF1FEE0FFF1FEE0FFF1F3F
:10095000E10FF11DE953FC4F84910E94E8031F5FF2
:100960001C1768F3DF91CF911F910895EF92FF92CA
:100970000F931F93CF93DF937C01D62FFC0101903F
:100980000020E9F731978F01081B190BFF928F9315
:1009900089E191E09F938F930E9431060F900F9011
:1009A0000F900F90C0E008C0F701E80FF91F6D2FFE
:1009B00080810E946804CF5F8C2F90E080179107A0
:1009C00098F3DF91CF911F910F91FF90EF900895D1
:1009D000CF92DF92EF92FF920F931F93CF93DF930B
:1009E00000D0CDB7DEB78EE191E09F938F930E9448
:1009F00031060E94D6056C010E94DB050F900F9016
:100A000000E010E0E12CF12C12C00E94D6058A8390
:100A10008A81F801F85E80838081898399818A8147
:100A2000981719F08FEFE81AF80A0F5F1F4F01159A
:100A300088E0180750F3C6010E94DB0500E010E0D3
:100A4000C12CD12C0CC00E94D605F801F85E908113
:100A5000891719F08FEFC81AD80A0F5F1F4F0115B9
:100A600088E0180780F3DF92CF92FF92EF9286E33F
:100A700091E09F938F930E9431060F900F900F90FB
:100A80000F900F900F900F900F90DF91CF911F91CB
:100A90000F91FF90EF90DF90CF90089585B7806819
:100AA00085BF80B7806280BF08958FE190E00E948B
:100AB000CE030E944E050E947F030E94EB030E941A
:100AC000E8040E945F0468E082E991E00E94B604B5
:100AD00081E00E942E0480E00E94320465E08FE9EC
:100AE00091E00E94B60482E00E942E0480E00E9401
:100AF000320464E082EB91E00E94B6040E9490030D
:100B00002FEF8FEF9EE0215080409040E1F700C032
:100B10000000F4CF8F929F92AF92BF92CF92DF925C
:100B2000EF92FF92CF93DF93EC01688179818A8104
:100B30009B81611571058105910521F464E279EDD0
:100B40008BE597E02DE133EF41E050E00E941C0A75
:100B500049015A019B01AC01A7EAB1E40E943B0A9A
:100B60006B017C01ACEEB4EFA50194010E94490A2F
:100B7000DC01CB018C0D9D1DAE1DBF1DB7FF03C059
:100B80000197A109B04888839983AA83BB839F7783
:100B9000DF91CF91FF90EF90DF90CF90BF90AF901B
:100BA0009F908F9008950E948A05089580E091E0BB
:100BB0000E948A050895A0E0B0E080930001909320
:100BC0000101A0930201B093030108950F931F93B5
:100BD000CF93DF93009731F46115710519F480E02C
:100BE00090E03AC08B01EC016EE070E081E090E0B3
:100BF0000E942808FC01892B91F380E8838301156A
:100C0000110571F01387028781E883838091C20107
:100C10009091C301892B21F4F093C301E093C201A9
:100C20002097C9F0D187C0878381826083838091B8
:100C3000C4019091C501892B71F4F093C501E09333
:100C4000C4018091C6019091C701892B21F4F093D2
:100C5000C701E093C601CF01DF91CF911F910F91A2
:100C60000895A0E0B0E0E7E3F6E00C945E0AAE0180
:100C70004B5F5F4FFA0161917191AF018091C401A7
:100C80009091C5010E944706E2E00C947A0AABE01D
:100C9000B0E0EDE4F6E00C944E0A6C017B018A01B1
:100CA000FC0117821682838181FFCCC1CE0101969F
:100CB0003C01F6019381F70193FD859193FF8191AA
:100CC0007F01882309F4BAC1853239F493FD8591F7
:100CD00093FF81917F01853229F4B60190E00E9453
:100CE0008209E7CF912C212C312CFFE1F315D8F0AC
:100CF0008B3279F038F4803279F08332A1F4232DED
:100D000020611DC08D3261F0803369F4232D216094
:100D100016C0832D8260382EE32DE4603E2E2AC05B
:100D2000F32DF8601DC037FC2DC020ED280F2A30B0
:100D300040F08E32B9F436FC81C1232D2064322E6E
:100D400019C036FE06C08AE0989E200D1124922E0E
:100D500011C0EAE02E9E200D1124222EF32DF06208
:100D60003F2E08C08C3621F4832D8068382E02C0B7
:100D7000883641F4F70193FD859193FF81917F01BE
:100D80008111B3CF982F9F7D9554933028F40C5F39
:100D90001F4F9FE399830DC0833631F0833771F085
:100DA000833509F059C021C0F801808189830E5F25
:100DB0001F4F88248394912C530113C02801F2E023
:100DC0004F0E511CF801A080B18036FE03C0692D82
:100DD00070E002C06FEF7FEFC5010E9477094C0100
:100DE0008201F32DFF773F2E16C0280122E0420E2C
:100DF000511CF801A080B18036FE03C0692D70E05F
:100E000002C06FEF7FEFC5010E9465094C01F32D11
:100E1000F0683F2E820133FC1BC0822D90E08816C3
:100E20009906B0F4B60180E290E00E9482092A940B
:100E3000F4CFF50137FC859137FE81915F01B60152
:100E400090E00E94820921102A9421E0821A9108E0
:100E50008114910471F7E8C0843611F0893641F5A8
:100E6000F80137FE07C060817181828193810C5F38
:100E70001F4F08C060817181072E000C880B990BF1
:100E80000E5F1F4FF32DFF763F2E97FF09C0909501
:100E90008095709561957F4F8F4F9F4FF0683F2EE3
:100EA0002AE030E0A3010E94BE09882E861845C0C2
:100EB000853731F4232D2F7EB22E2AE030E025C075
:100EC000932D997FB92E8F36C1F018F4883579F0BB
:100ED000B5C0803719F0883721F0B0C0E92FE06144
:100EE000BE2EB4FE0DC0FB2DF460BF2E09C034FE33
:100EF0000AC0292F2660B22E06C028E030E005C0C7
:100F000020E130E002C020E132E0F801B7FE07C086
:100F100060817181828193810C5F1F4F06C0608167
:100F2000718180E090E00E5F1F4FA3010E94BE0917
:100F3000882E8618FB2DFF773F2E36FE0DC0232D01
:100F40002E7FA22E891458F434FE0BC032FC09C047
:100F5000832D8E7EA82E05C0B82CA32C03C0B82CE0
:100F600001C0B92CA4FE0FC0FE01E80DF11D808167
:100F7000803321F49A2D997EA92E09C0A2FE06C0C5
:100F8000B394B39404C08A2D867809F0B394A3FC7B
:100F900011C0A0FE06C0B21488F4280C922C9B1835
:100FA0000EC0B21460F4B60180E290E00E948209A3
:100FB000B394F7CFB21418F42B1802C0982C212C3C
:100FC000A4FE10C0B60180E390E00E948209A2FE58
:100FD00017C0A1FC03C088E790E002C088E590E05C
:100FE000B6010CC08A2D867859F0A1FE02C08BE2B2
:100FF00001C080E2A7FC8DE2B60190E00E94820968
:10100000891438F4B60180E390E00E9482099A9432
:10101000F7CF8A94F301E80DF11D8081B60190E0CD
:101020000E9482098110F5CF222009F442CEB60138
:1010300080E290E00E9482092A94F6CFF601868130
:10104000978102C08FEF9FEF2B96E2E10C946A0A22
:101050000F931F93CF93DF93869F8001879F100D7F
:10106000969F100D1124C8010E944408EC010097BE
:1010700029F0A80160E070E00E947009CE01DF91C4
:10108000CF911F910F9108950F931F93CF93DF93EB
:101090008230910510F482E090E0E091CA01F09175
:1010A000CB0120E030E0A0E0B0E0309719F14081C2
:1010B00051810281138148175907C8F08417950799
:1010C00069F4109731F012960C93129713961C93B3
:1010D00027C00093CA011093CB0122C0211531050E
:1010E00019F04217530718F49A01BD01EF01DF010F
:1010F000F801DBCF21153105F9F0281B390B24301D
:10110000310580F48A819B816115710521F0FB0115
:101110009383828304C09093CB018093CA01FE0124
:10112000329644C0FE01E20FF31F81939193225047
:101130003109398328833AC02091C8013091C9010F
:10114000232B41F420910601309107013093C9010E
:101150002093C8012091040130910501211531052A
:1011600041F42DB73EB74091080150910901241B6D
:10117000350BE091C801F091C901E217F307A0F423
:101180002E1B3F0B2817390778F0AC014E5F5F4FDD
:101190002417350748F04E0F5F1F5093C901409345
:1011A000C8018193919302C0E0E0F0E0CF01DF91AC
:1011B000CF911F910F910895CF93DF93009709F47A
:1011C00081C0FC01329713821282A091CA01B091B2
:1011D000CB01109781F420813181820F931F2091E0
:1011E000C8013091C9012817390751F5F093C90199
:1011F000E093C80167C0ED0120E030E0CE17DF07C3
:1012000040F44A815B819E0141155105F1F0EA01EC
:10121000F5CFD383C28340815181840F951FC817B6
:10122000D90759F488819981840F951F029691837B
:1012300080838A819B81938382832115310529F4E0
:10124000F093CB01E093CA013DC0E901FB83EA833F
:1012500049915991C40FD51FEC17FD0761F48081A6
:101260009181840F951F0296E90199838883828179
:1012700093819B838A83E0E0F0E012968D919C91AC
:101280001397009719F0FD01DC01F7CF8D919C9128
:1012900011979D012E5F3F4F820F931F2091C80130
:1012A0003091C9012817390769F4309729F4109251
:1012B000CB011092CA0102C013821282B093C901FD
:1012C000A093C801DF91CF910895FC010590615072
:1012D00070400110D8F7809590958E0F9F1F08954C
:1012E000DC0101C06D9341505040E0F70895FC01CE
:1012F0006150704001900110D8F7809590958E0F45
:101300009F1F08950F931F93CF93DF93FB012381BA
:1013100021FD03C08FEF9FEF2CC022FF16C0468136
:101320005781248135814217530744F4A081B1814C
:101330009D012F5F3F4F318320838C93268137811E
:101340002F5F3F4F3783268314C08B01EC01FB01D5
:101350000084F185E02D0995892BE1F6D8011696D8
:101360008D919C911797019617969C938E93169743
:10137000CE01DF91CF911F910F910895FA01AA2715
:10138000283051F1203181F1E8946F936E7F6E5FC8
:101390007F4F8F4F9F4FAF4FB1E03ED0B4E03CD076
:1013A000670F781F891F9A1FA11D680F791F8A1F59
:1013B000911DA11D6A0F711D811D911DA11D20D0C0
:1013C00009F468943F912AE0269F11243019305D7A
:1013D0003193DEF6CF010895462F4770405D41936B
:1013E000B3E00FD0C9F7F6CF462F4F70405D4A33B8
:1013F00018F0495D31FD4052419302D0A9F7EACF80
:10140000B4E0A6959795879577956795BA95C9F7AE
:1014100000976105710508959B01AC010A2E0694A1
:101420005795479537952795BA95C9F7620F731F5A
:10143000841F951FA01D0895052E97FB1EF4009490
:101440000E94330A57FD07D00E94850A07FC03D08B
:101450004EF40C94330A50954095309521953F4FAA
:101460004F4F5F4F089590958095709561957F4F90
:101470008F4F9F4F08950E94A70AA59F900DB49F7C
:10148000900DA49F800D911D11240895B7FF0C9419
:101490003B0A0E943B0A821B930B08952F923F92B6
:1014A0004F925F926F927F928F929F92AF92BF9274
:1014B000CF92DF92EF92FF920F931F93CF93DF9320
:1014C000CDB7DEB7CA1BDB0B0FB6F894DEBF0FBE7D
:1014D000CDBF09942A88398848885F846E847D84CA
:1014E0008C849B84AA84B984C884DF80EE80FD80CC
:1014F0000C811B81AA81B981CE0FD11D0FB6F89442
:10150000DEBF0FBECDBFED010895A1E21A2EAA1BCA
:10151000BB1BFD010DC0AA1FBB1FEE1FFF1FA217A3
:10152000B307E407F50720F0A21BB30BE40BF50BA0
:10153000661F771F881F991F1A9469F76095709529
:10154000809590959B01AC01BD01CF010895A29FAC
:10155000B001B39FC001A39F700D811D1124911D87
:10156000B29F700D811D1124911D0895F894FFCF35
:10157000010000000000CC0120002538640D00258A
:101580003864002538640A0A000A0D257300537474
:10159000617274696E67205352414D207465737493
:1015A0002E2E2E0A0D005352414D20746573742067
:1015B000636F6D706C657465642077697468200A68
:1015C0000D253464206572726F727320696E207706
:1015D0007269746520706861736520616E64200AA9
:1015E0000D253464206572726F727320696E2072EB
:1015F000657472696576616C2070686173650A0A4A
:101600000D004A65672065722073746F7221004A6D
:1016100065672065722070617373652073746F72E3
:1016200021004A6567206572206C6974656E203AF6
:02163000280090
:00000001FF
