:100000000C9460030C947D030C947D030C94C20447
:100010000C947D030C947D030C947D030C947D0360
:100020000C947D030C947D030C947D030C947D0350
:100030000C947D030C947D030C947D030C947D0340
:100040000C947D030C947D030C947D030C947D0330
:100050000C947D030C947D030C947D030C947D0320
:100060000C947D030C947D030C947D030C947D0310
:1000700000000000005C00000C000C007C287C28C4
:1000800058DC68002410480028542840000C000068
:10009000007884008478000054385400107C1000EC
:1000A00080400000101010000040000060100C00A4
:1000B00038543800487C40004864580044542C00B0
:1000C0001C107C005C5424003854240064140C0080
:1000D00068542C0048543800004800008048000054
:1000E0001028440028282800442810000454080040
:1000F00038445C00781478007C5428003844280088
:100100007C4438007C5444007C140400384474005F
:100110007C107C00447C440020403C007C106C003F
:100120007C4040007C187C0078103C00384438004B
:100130007C1408003844B8007C146800485424003B
:10014000047C04007C407C003C603C007C307C00F3
:100150006C106C000C700C0064544C00007C44006B
:100160000C106000447C00000804080080808000BF
:1001700000040800304878007C48300030484800CF
:1001800030487C00306850001078140090A8780047
:100190007C08700050744000808074007C106800FF
:1001A000447C4000781078007808700030483000B7
:1001B000F82810003048F80078100800505828003F
:1001C000083C4800384078003840380078207800F3
:1001D0004830480098A0780048685800107884009B
:1001E000007C00008478100008040804000000006F
:1001F0000000005F00000007000700147F147F1458
:10020000242A7F2A1223130864623649552250009B
:1002100005030000001C2241000041221C00082AA6
:100220001C2A0808083E080800503000000808088A
:100230000808006060000020100804023E51494593
:100240003E00427F400042615149462141454B31C9
:100250001814127F1027454545393C4A4949300159
:10026000710905033649494936064949291E0036B0
:100270003600000056360000000814224114141401
:10028000141441221408000201510906324979412F
:100290003E7E1111117E7F494949363E414141223E
:1002A0007F4141221C7F494949417F090901013EA3
:1002B000414151327F0808087F00417F41002040C2
:1002C000413F017F081422417F404040407F0204AB
:1002D000027F7F0408107F3E4141413E7F090909AA
:1002E000063E4151215E7F09192946464949493157
:1002F00001017F01013F4040403F1F2040201F7F00
:100300002018207F631408146303047804036151E8
:1003100049454300007F4141020408102041417FCC
:100320000000040201020440404040400001020479
:100330000020545454787F4844443838444444207E
:10034000384444487F3854545418087E0901020840
:100350001454543C7F0804047800447D400020403D
:10036000443D00007F10284400417F40007C041879
:1003700004787C0804047838444444387C14141409
:1003800008081414187C7C080404084854545420A9
:10039000043F4440203C4040207C1C2040201C3C2A
:1003A0004030403C44281028440C5050503C446499
:1003B000544C44000836410000007F0000004136E4
:1003C000080002010302010000000000000000001C
:1003D000065F5F0600000000070700070700001423
:1003E0007F7F147F7F1400242E6B6B3A120000462F
:1003F0006630180C666200307A4F5D377A48000428
:1004000007030000000000001C3E634100000000E4
:1004100041633E1C000000082A3E1C1C3E2A0808BE
:10042000083E3E0808000000A0E060000000000850
:100430000808080808000000006060000000006074
:1004400030180C060301003E7F594D7F3E000042EC
:10045000427F7F40400000627359496F660000226E
:100460006349497F360000181C16137F7F10002750
:100470006745457D3900003C7E4B497930000003DB
:100480006371190F070000367F49497F3600000667
:100490004F49693F1E000000006C6C000000000026
:1004A000A0EC6C00000000081C3663410000001442
:1004B00014141414140000004163361C08000002D8
:1004C0000351590F0600003E7F415D5D1F1E007CF9
:1004D0007E13137E7C0000417F7F49497F36001CDC
:1004E0003E634141632200417F7F41637F1C0041A5
:1004F0007F7F495D416300417F7F491D0103001CEF
:100500003E6341517372007F7F08087F7F000000C7
:10051000417F7F41000000307040417F3F0100413A
:100520007F7F081C776300417F7F41406070007FC0
:100530007F060C067F7F007F7F060C187F7F001CE4
:100540003E6341633E1C00417F7F49090F06001E48
:100550003F21717F5E0000417F7F19396F46002681
:10056000674D597B32000003417F7F410300007FCC
:100570007F40407F7F00001F3F60603F1F00007F83
:100580007F3018307F7F0063771C081C776300077B
:100590004F78784F0700006773594D47637100002B
:1005A0007F7F41410000000103060C18306000000D
:1005B00041417F7F000000080C0603060C08008004
:1005C000808080808080800000030704000000207D
:1005D0007454543C784000413F7F44447C38003898
:1005E0007C44446C280000307848493F7F40003804
:1005F0007C54545C180000487E7F49030200009838
:10060000BCA4A4F87C0400417F7F08047C7800002F
:10061000447D7D4000000040C484FD7D0000004119
:100620007F7F10386C440000417F7F400000007CD9
:100630007C0C180C7C78007C7C04047C78000038EE
:100640007C44447C38000084FCF8A4243C18001846
:100650003C24A4F8FC8400447C78441C1800004826
:100660005C54547424000000043E7F442400003C89
:100670007C40403C7C40001C3C60603C1C00003CDA
:100680007C6030607C3C00446C3810386C44009CCA
:10069000BCA0A0FC7C00004C64745C4C64000008AE
:1006A000083E7741410000000000777700000041DC
:1006B00041773E0808000002030103020301000025
:1006C00011241FBECFEFD4E0DEBFCDBF11E0A0E00C
:1006D000B1E0E8E0F9E102C005900D92AA3EB10751
:1006E000D9F721E0AAEEB1E001C01D92A93FB207FF
:1006F000E1F70E94E8060C94820C0C940000EBE8F1
:10070000F0E0808180648083EAE8F0E080818160AD
:10071000808380818860808381B3806181BB0895FC
:100720005D9BFECF8CB908955F9BFECF8CB1089581
:1007300090BD89B988E18AB98EE880BD64E973E02B
:1007400080E993E00E94B2070895CF93C82F88B341
:100750008F7E88BB83E00E9472068C2F0E947206F7
:100760000E94760698B3906198BBCF910895CF937D
:10077000DF93D82FC62F88B38F7E88BB82E00E947C
:1007800072068D2F0E9472068C2F0E94720688B30B
:10079000806188BBDF91CF910895CF9388B38F7E1E
:1007A00088BB80EA0E9472060E947606C82F1F92BC
:1007B0008F938EE291E09F938F930E94FD0788B301
:1007C000806188BB0F900F900F900F908C2FCF916E
:1007D00008951F93CF93DF93182FD62FC42F88B37C
:1007E0008F7E88BB85E00E947206812F0E94720670
:1007F0008D2F0E9472068C2F0E94720688B3806132
:1008000088BBDF91CF911F91089588B38F7E88BBFD
:1008100080EC0E94720688B3806188BB83EC99E00B
:100820000197F1F700C0000008950E9459060E9448
:1008300005040E94CD0340E460EE8FE00E94E903CE
:100840000895EF92FF920F931F93CF93DF93CDB74D
:10085000DEB72B970FB6F894DEBF0FBECDBFE9828F
:10086000FA820B831C832D833E834F8358876987CD
:100870007A878B8788B38F7E88BB89819A81BC01F8
:10088000769567957695679576956795182F129565
:10089000110F107E81E30E94B703612F82E30E9453
:1008A000B703FB806F2D85E30E94B70300E010E0E3
:1008B0000DC0E4E0F0E0EC0FFD1FE00FF11F6081E0
:1008C00086E3800F0E94B7030F5F1F4F8F2D90E0CC
:1008D0000817190774F381E80E94720648E068E07F
:1008E0008EE10E94E90388B3806188BB2B960FB626
:1008F000F894DEBF0FBECDBFDF91CF911F910F9156
:10090000FF90EF900895FF920F931F93CF93DF9383
:100910008C0188B38F7E88BB81E60E94A503C82F17
:1009200082E60E94A5032C2F30E0322F2227282BAD
:10093000F8013183208385E60E94A503F82E8F708D
:10094000F8018283C0E0D0E009C08C2F8A590E9450
:10095000A503F801EC0FFD1F838321968F2D90E0F6
:10096000C817D90794F340E061E08CE20E94E903E4
:1009700088B3806188BBC801DF91CF911F910F912F
:10098000FF9008951F920F920FB60F9211240F90AF
:100990000FBE0F901F901895CF93DF930E94940580
:1009A00064E081E491E00E94270668E083E491E03E
:1009B0000E942706C0E01DC08091EA01C81711F00F
:1009C000D5E001C0D8E064E081E491E00E94270610
:1009D000EC2FF0E0EE0FFF1FE65FFE4F6D2F8081E2
:1009E00091810E9427066D2F82EE91E00E942706DA
:1009F000CF5F8091ED018C17F8F68091EA018E5F50
:100A00000E945B0568E080E591E00E942706DF9187
:100A1000CF91089582E08093ED011092EA01109247
:100A2000EC010895809300100895809300120895BA
:100A30008EEA0E94120581EA0E9412058AED0E9448
:100A4000120582E10E94120588EC0E94120588EAD4
:100A50000E9412058FE30E94120585ED0E94120587
:100A600080E80E94120581E80E94120580E50E943C
:100A7000120589ED0E94120581E20E94120580E2B2
:100A80000E94120582E00E9412058BED0E94120561
:100A900080E30E9412058DEA0E94120580E00E9408
:100AA000120584EA0E94120586EA0E9412058FEA66
:100AB0000E9412050895CF93C82F80EB8C0F0E94DF
:100AC0001205C093EE01CF910895CF93C82F8F7078
:100AD0000E9412058C2F82958F70805F0E941205F4
:100AE000C093EB01CF910895CF93DF930E945B05F4
:100AF000C0E0D0E004C080E00E9415052196C03817
:100B0000D105CCF3DF91CF910895CF93DF93C0E06F
:100B1000D0E004C08C2F0E9474052196C830D10506
:100B2000CCF3DF91CF9108950E94850580E00E946B
:100B30005B0580E00E94650508958091EE01873095
:100B400021F480E00E945B0508958F5F0E945B05A1
:100B500008950F931F93CF93DF93D82FC62F8A301A
:100B600029F08D3031F08930A9F40EC00E949D0526
:100B700069C080E00E94650565C06C2F80E20E941C
:100B8000A9050F5F1F4F02C000E010E004301105FF
:100B9000A4F358C02091EB01862F90E0820F911DA5
:100BA000803891052CF00E949D0580E00E9465052B
:100BB000C430A9F410C0ED2FF0E0B097EE0FFF1F86
:100BC000EE0FFF1FE10FF11DE059FF4F84910E94CE
:100BD00015051F5F01C010E01C1768F32EC0C5305B
:100BE000A9F010E028C08D2F90E08097FC01EE0F57
:100BF000FF1FEE0FFF1FE80FF91FE10FF11DE4517A
:100C0000FE4F84910E9415051F5F01C010E01C1764
:100C100050F313C0ED2FF0E0B097EE0FFF1FEE0F73
:100C2000FF1FEE0FFF1FE10FF11DE953FC4F8491F1
:100C30000E9415051F5F1C1768F38091EB01C80F18
:100C4000C093EB01DF91CF911F910F910895EF9227
:100C5000FF920F931F93CF93DF937C01D62FFC015C
:100C600001900020E9F731978F01081B190BFF92C3
:100C70008F938CE691E09F938F930E94FD070F90D6
:100C80000F900F900F90C0E008C0F701E80FF91F18
:100C90006D2F80810E94A905CF5F8C2F90E0801777
:100CA000910798F3DF91CF911F910F91FF90EF90F3
:100CB000089587B3806287BB87B3806887BB87B39B
:100CC000806187BB87B38F7B87BB88B3806188BB1C
:100CD0008DB180648DB98DB180618DB98DB1816028
:100CE0008DB908958FB9779BFECF089580E00E945B
:100CF00072068FB10895CF92DF92EF92FF920F9319
:100D00001F93CF93DF9300D0CDB7DEB781E791E09B
:100D10009F938F930E94FD070E94A2076C010E947F
:100D2000A7070F900F9000E010E0E12CF12C12C00B
:100D30000E94A2078A838A81F801F85E80838081FD
:100D4000898399818A81981719F08FEFE81AF80A38
:100D50000F5F1F4F011588E0180750F3C6010E946E
:100D6000A70700E010E0C12CD12C0CC00E94A20704
:100D7000F801F85E9081891719F08FEFC81AD80A28
:100D80000F5F1F4F011588E0180780F3DF92CF92A5
:100D9000FF92EF9289E891E09F938F930E94FD0765
:100DA0000F900F900F900F900F900F900F900F904B
:100DB000DF91CF911F910F91FF90EF90DF90CF9037
:100DC000089585B7806885BF80B7806280BF089529
:100DD000CF93DF93CDB7DEB7A1970FB6F894DEBF00
:100DE0000FBECDBF8FE190E00E9498030E94E10604
:100DF0000E947F030E9418050E940A050E941504A4
:100E00000E947B060E9494050E94CC041A821982DB
:100E100083E08B8391E09C8392E09D838E83E12C21
:100E2000FA8003E011E022E033E04F8158856985C4
:100E30007A858B850E9421048CEC94E00197F1F770
:100E400000C00000CE0147960E9483048BE0FE01A3
:100E50007796DE011C9601900D928A95E1F700E0ED
:100E600010E015C0EFE0F0E0EC0FFD1FE00FF11F08
:100E700080811F928F9385EE91E09F938F930E94C4
:100E8000FD070F5F1F4F0F900F900F900F908E85F3
:100E900090E00817190734F39FEF2FE781E0915096
:100EA00020408040E1F700C000C0B0CF8F929F92F9
:100EB000AF92BF92CF92DF92EF92FF92CF93DF93E8
:100EC000EC01688179818A819B81611571058105B9
:100ED000910521F464E279ED8BE597E02DE133EFA4
:100EE00041E050E00E94E80B49015A019B01AC012E
:100EF000A7EAB1E40E94070C6B017C01ACEEB4EFF1
:100F0000A50194010E94150CDC01CB018C0D9D1DE7
:100F1000AE1DBF1DB7FF03C00197A109B04888836C
:100F20009983AA83BB839F77DF91CF91FF90EF9046
:100F3000DF90CF90BF90AF909F908F9008950E94C8
:100F40005607089580E091E00E9456070895A0E0BA
:100F5000B0E08093000190930101A0930201B0934F
:100F6000030108950F931F93CF93DF93009731F4FC
:100F70006115710519F480E090E03AC08B01EC0135
:100F80006EE070E081E090E00E94F409FC01892BA2
:100F900091F380E883830115110571F013870287AF
:100FA00081E883838091EF019091F001892B21F4F6
:100FB000F093F001E093EF012097C9F0D187C0874B
:100FC0008381826083838091F1019091F201892B6A
:100FD00071F4F093F201E093F1018091F3019091AB
:100FE000F401892B21F4F093F401E093F301CF0194
:100FF000DF91CF911F910F910895A0E0B0E0E3E061
:10100000F8E00C942A0CAE014B5F5F4FFA0161913E
:101010007191AF018091F1019091F2010E9413084A
:10102000E2E00C94460CABE0B0E0E9E1F8E00C94AF
:101030001A0C6C017B018A01FC01178216828381E4
:1010400081FFCCC1CE0101963C01F6019381F701ED
:1010500093FD859193FF81917F01882309F4BAC1A3
:10106000853239F493FD859193FF81917F0185321B
:1010700029F4B60190E00E944E0BE7CF912C212C71
:10108000312CFFE1F315D8F08B3279F038F480324F
:1010900079F08332A1F4232D20611DC08D3261F0DF
:1010A000803369F4232D216016C0832D8260382E91
:1010B000E32DE4603E2E2AC0F32DF8601DC037FCFE
:1010C0002DC020ED280F2A3040F08E32B9F436FCC6
:1010D00081C1232D2064322E19C036FE06C08AE05D
:1010E000989E200D1124922E11C0EAE02E9E200D14
:1010F0001124222EF32DF0623F2E08C08C3621F4ED
:10110000832D8068382E02C0883641F4F70193FDA4
:10111000859193FF81917F018111B3CF982F9F7D9E
:101120009554933028F40C5F1F4F9FE399830DC0B3
:10113000833631F0833771F0833509F059C021C00F
:10114000F801808189830E5F1F4F88248394912C3E
:10115000530113C02801F2E04F0E511CF801A0808A
:10116000B18036FE03C0692D70E002C06FEF7FEFE3
:10117000C5010E94430B4C018201F32DFF773F2EE6
:1011800016C0280122E0420E511CF801A080B18057
:1011900036FE03C0692D70E002C06FEF7FEFC5011E
:1011A0000E94310B4C01F32DF0683F2E820133FC7D
:1011B0001BC0822D90E088169906B0F4B60180E23B
:1011C00090E00E944E0B2A94F4CFF50137FC8591F4
:1011D00037FE81915F01B60190E00E944E0B211015
:1011E0002A9421E0821A91088114910471F7E8C0D1
:1011F000843611F0893641F5F80137FE07C0608169
:101200007181828193810C5F1F4F08C06081718161
:10121000072E000C880B990B0E5F1F4FF32DFF76E6
:101220003F2E97FF09C090958095709561957F4FEF
:101230008F4F9F4FF0683F2E2AE030E0A3010E94BD
:101240008A0B882E861845C0853731F4232D2F7ED2
:10125000B22E2AE030E025C0932D997FB92E8F362B
:10126000C1F018F4883579F0B5C0803719F08837A7
:1012700021F0B0C0E92FE061BE2EB4FE0DC0FB2D01
:10128000F460BF2E09C034FE0AC0292F2660B22E9A
:1012900006C028E030E005C020E130E002C020E1D7
:1012A00032E0F801B7FE07C06081718182819381CD
:1012B0000C5F1F4F06C06081718180E090E00E5F7F
:1012C0001F4FA3010E948A0B882E8618FB2DFF77E3
:1012D0003F2E36FE0DC0232D2E7FA22E891458F4EA
:1012E00034FE0BC032FC09C0832D8E7EA82E05C0B3
:1012F000B82CA32C03C0B82C01C0B92CA4FE0FC07D
:10130000FE01E80DF11D8081803321F49A2D997E34
:10131000A92E09C0A2FE06C0B394B39404C08A2DBE
:10132000867809F0B394A3FC11C0A0FE06C0B214E5
:1013300088F4280C922C9B180EC0B21460F4B601ED
:1013400080E290E00E944E0BB394F7CFB21418F4F1
:101350002B1802C0982C212CA4FE10C0B60180E3EB
:1013600090E00E944E0BA2FE17C0A1FC03C088E7CC
:1013700090E002C088E590E0B6010CC08A2D867826
:1013800059F0A1FE02C08BE201C080E2A7FC8DE211
:10139000B60190E00E944E0B891438F4B60180E348
:1013A00090E00E944E0B9A94F7CF8A94F301E80DD7
:1013B000F11D8081B60190E00E944E0B8110F5CFA7
:1013C000222009F442CEB60180E290E00E944E0B4A
:1013D0002A94F6CFF6018681978102C08FEF9FEFA6
:1013E0002B96E2E10C94360C0F931F93CF93DF936F
:1013F000869F8001879F100D969F100D1124C801B4
:101400000E94100AEC01009729F0A80160E070E04A
:101410000E943C0BCE01DF91CF911F910F91089557
:101420000F931F93CF93DF938230910510F482E0E6
:1014300090E0E091F701F091F80120E030E0A0E0C9
:10144000B0E0309719F14081518102811381481732
:101450005907C8F08417950769F4109731F0129670
:101460000C93129713961C9327C00093F7011093C7
:10147000F80122C02115310519F04217530718F45D
:101480009A01BD01EF01DF01F801DBCF2115310524
:10149000F9F0281B390B2430310580F48A819B81B7
:1014A0006115710521F0FB019383828304C0909341
:1014B000F8018093F701FE01329644C0FE01E20F6D
:1014C000F31F8193919322503109398328833AC0C5
:1014D0002091F5013091F601232B41F42091060172
:1014E000309107013093F6012093F501209104011A
:1014F000309105012115310541F42DB73EB74091DA
:10150000080150910901241B350BE091F501F09180
:10151000F601E217F307A0F42E1B3F0B281739073B
:1015200078F0AC014E5F5F4F2417350748F04E0F3F
:101530005F1F5093F6014093F5018193919302C090
:10154000E0E0F0E0CF01DF91CF911F910F9108957E
:10155000CF93DF93009709F481C0FC013297138287
:101560001282A091F701B091F801109781F42081C7
:101570003181820F931F2091F5013091F6012817D8
:10158000390751F5F093F601E093F50167C0ED01DD
:1015900020E030E0CE17DF0740F44A815B819E01F6
:1015A00041155105F1F0EA01F5CFD383C2834081A3
:1015B0005181840F951FC817D90759F488819981E3
:1015C000840F951F0296918380838A819B819383E8
:1015D00082832115310529F4F093F801E093F70196
:1015E0003DC0E901FB83EA8349915991C40FD51F9E
:1015F000EC17FD0761F480819181840F951F02969D
:10160000E90199838883828193819B838A83E0E0C7
:10161000F0E012968D919C911397009719F0FD01BF
:10162000DC01F7CF8D919C9111979D012E5F3F4F6B
:10163000820F931F2091F5013091F6012817390789
:1016400069F4309729F41092F8011092F70102C062
:1016500013821282B093F601A093F501DF91CF912E
:101660000895FC010590615070400110D8F78095F5
:1016700090958E0F9F1F0895DC0101C06D9341501E
:101680005040E0F70895FC01615070400190011056
:10169000D8F7809590958E0F9F1F08950F931F93F5
:1016A000CF93DF93FB01238121FD03C08FEF9FEFD9
:1016B0002CC022FF16C046815781248135814217F4
:1016C000530744F4A081B1819D012F5F3F4F3183C7
:1016D00020838C93268137812F5F3F4F378326836A
:1016E00014C08B01EC01FB010084F185E02D09950C
:1016F000892BE1F6D80116968D919C91179701964A
:1017000017969C938E931697CE01DF91CF911F91E0
:101710000F910895FA01AA27283051F1203181F163
:10172000E8946F936E7F6E5F7F4F8F4F9F4FAF4FE9
:10173000B1E03ED0B4E03CD0670F781F891F9A1FFC
:10174000A11D680F791F8A1F911DA11D6A0F711DB0
:10175000811D911DA11D20D009F468943F912AE0BC
:10176000269F11243019305D3193DEF6CF010895A4
:10177000462F4770405D4193B3E00FD0C9F7F6CFD5
:10178000462F4F70405D4A3318F0495D31FD40529D
:10179000419302D0A9F7EACFB4E0A6959795879533
:1017A00077956795BA95C9F7009761057105089512
:1017B0009B01AC010A2E06945795479537952795BE
:1017C000BA95C9F7620F731F841F951FA01D089556
:1017D000052E97FB1EF400940E94FF0B57FD07D0C7
:1017E0000E94510C07FC03D04EF40C94FF0B509553
:1017F0004095309521953F4F4F4F5F4F08959095FD
:101800008095709561957F4F8F4F9F4F08950E94EF
:10181000730CA59F900DB49F900DA49F800D911DFA
:1018200011240895B7FF0C94070C0E94070C821B2B
:10183000930B08952F923F924F925F926F927F92F7
:101840008F929F92AF92BF92CF92DF92EF92FF92D0
:101850000F931F93CF93DF93CDB7DEB7CA1BDB0B7C
:101860000FB6F894DEBF0FBECDBF09942A88398821
:1018700048885F846E847D848C849B84AA84B98428
:10188000C884DF80EE80FD800C811B81AA81B98134
:10189000CE0FD11D0FB6F894DEBF0FBECDBFED0148
:1018A0000895A1E21A2EAA1BBB1BFD010DC0AA1FA1
:1018B000BB1FEE1FFF1FA217B307E407F50720F0B9
:1018C000A21BB30BE40BF50B661F771F881F991F34
:1018D0001A9469F760957095809590959B01AC017D
:1018E000BD01CF010895A29FB001B39FC001A39F86
:1018F000700D811D1124911DB29F700D811D112449
:08190000911D0895F894FFCF3A
:10190800010000000000F9012000530158016201A4
:101918000A0D496E76616C69642043414E207265F8
:10192800717565737420746F2073656E64005468F4
:1019380065207374617475732069732025750A0DA9
:101948000009004D61696E206D656E750A0A0D000B
:101958002D3E00506C6179004869676873636F7247
:10196800650043616C696272617465000A0D2573D4
:10197800005374617274696E67205352414D20742C
:101988006573742E2E2E0A0D005352414D20746536
:10199800737420636F6D706C657465642077697407
:1019A80068200A0D253464206572726F727320698D
:1019B8006E20777269746520706861736520616E46
:1019C80064200A0D253464206572726F7273206971
:1019D8006E2072657472696576616C2070686173D7
:0A19E800650A0A0D002532640000B4
:00000001FF
