S01700004763634170706C69636174696F6E312E737265635B
S11300000C9438000C9442000C9442000C9442006E
S11300100C9442000C9442000C9442000C94420054
S11300200C9442000C9442000C9442000C94420044
S11300300C9442000C9442000C9442000C94420034
S11300400C9442000C9442000C9442000C94420024
S11300500C9442000C9442000C9442000C94420014
S11300600C9442000C9442000C9442000C94420004
S113007011241FBECFEFD4E0DEBFCDBF0E944F00DE
S11300800C9465000C94000090BD89B988E18AB98C
S113009086E880BD08955D9BFECF8CB908951ABA99
S11300A08FE190E00E94440088E40E944B009BB3DF
S11300B081E089278BBB2FEF8FEF9EE0215080409A
S11100C09040E1F700C00000EFCFF894FFCFAE
S9030000FC
