S01700004763634170706C69636174696F6E312E737265635B
S11300000C9438000C9455000C9455000C94550035
S11300100C9455000C9455000C9455000C94550008
S11300200C9455000C9455000C9455000C945500F8
S11300300C9455000C9455000C9455000C945500E8
S11300400C9455000C9455000C9455000C945500D8
S11300500C9455000C9455000C9455000C945500C8
S11300600C9455000C9455000C9455000C945500B8
S113007011241FBECFEFD4E0DEBFCDBF11E0A0E05E
S1130080B1E0E8ECFCE002C005900D92A039B107A4
S1130090D9F721E0A0E9B1E001C01D92AA39B20765
S11300A0E1F70E9420010C9462060C940000EBE836
S11300B0F0E0808180648083EAE8F0E08081816000
S11300C0808380818860808381B3806181BB08954F
S11300D00F931F93CF93DF93C0E0D4E118828881FC
S11300E01F928F938AE091E09F938F930E94DD018A
S11300F088811F928F9300E111E01F930F930E9458
S1130100DD0188811F928F931F930F930E94DD015D
S113011088811F928F9385E191E09F938F930E9432
S1130120DD018DB79EB740960FB6F8949EBF0FBE03
S11301308DBFDF91CF911F910F9108955D9BFECFED
S11301408CB908955F9BFECF8CB1089590BD89B999
S113015088E18AB98EE880BD62EA70E08EE990E0B9
S11301600E9492010895CF92DF92EF92FF920F9333
S11301701F93CF93DF9300D0CDB7DEB78BE191E02F
S11301809F938F930E94DD010E9482016C010E9463
S113019087010F900F9000E010E0E12CF12C12C0C9
S11301A00E9482018A838A81F801F85E80838081BB
S11301B0898399818A81981719F08FEFE81AF80AD0
S11301C00F5F1F4F011588E0180750F3C6010E9406
S11301D0870100E010E0C12CD12C0CC00E948201E8
S11301E0F801F85E9081891719F08FEFC81AD80AC0
S11301F00F5F1F4F011588E0180780F3DF92CF923D
S1130200FF92EF9283E391E09F938F930E94DD012D
S11302100F900F900F900F900F900F900F900F90E2
S1130220DF91CF911F910F91FF90EF90DF90CF90CE
S1130230089585B7806885BF80B7806280BF0895C0
S11302408FE190E00E94A6000E9419010E945700CD
S11302500E94B3000E9468002FEF8FE791E02150C5
S113026080409040E1F700C000C0F4CF8F929F928D
S1130270AF92BF92CF92DF92EF92FF92CF93DF9330
S1130280EC01688179818A819B8161157105810501
S1130290910521F464E279ED8BE597E02DE133EFEC
S11302A041E050E00E94C80549015A019B01AC019C
S11302B0A7EAB1E40E94E7056B017C01ACEEB4EF60
S11302C0A50194010E94F505DC01CB018C0D9D1D57
S11302D0AE1DBF1DB7FF03C00197A109B0488883B5
S11302E09983AA83BB839F77DF91CF91FF90EF908F
S11302F0DF90CF90BF90AF909F908F9008950E9411
S11303003601089580E091E00E9436010895A0E04E
S1130310B0E08093000190930101A0930201B09397
S1130320030108950F931F93CF93DF93009731F444
S11303306115710519F480E090E03AC08B01EC017D
S11303406EE070E081E090E00E94D403FC01892B10
S113035091F380E883830115110571F013870287F7
S113036081E883838091900190919101892B21F4FC
S1130370F0939101E09390012097C9F0D187C08751
S11303808381826083838091920190919301892B70
S113039071F4F0939301E093920180919401909110
S11303A09501892B21F4F0939501E0939401CF01F9
S11303B0DF91CF911F910F910895A0E0B0E0E3EE9B
S11303C0F1E00C940A06AE014B5F5F4FFA016191B4
S11303D07191AF0180919201909193010E94F30178
S11303E0E2E00C942606ABE0B0E0E9EFF1E00C9417
S11303F0FA056C017B018A01FC0117821682838154
S113040081FFCCC1CE0101963C01F6019381F70135
S113041093FD859193FF81917F01882309F4BAC1EB
S1130420853239F493FD859193FF81917F01853263
S113043029F4B60190E00E942E05E7CF912C212CDF
S1130440312CFFE1F315D8F08B3279F038F4803297
S113045079F08332A1F4232D20611DC08D3261F027
S1130460803369F4232D216016C0832D8260382ED9
S1130470E32DE4603E2E2AC0F32DF8601DC037FC46
S11304802DC020ED280F2A3040F08E32B9F436FC0E
S113049081C1232D2064322E19C036FE06C08AE0A5
S11304A0989E200D1124922E11C0EAE02E9E200D5C
S11304B01124222EF32DF0623F2E08C08C3621F435
S11304C0832D8068382E02C0883641F4F70193FDED
S11304D0859193FF81917F018111B3CF982F9F7DE7
S11304E09554933028F40C5F1F4F9FE399830DC0FC
S11304F0833631F0833771F0833509F059C021C058
S1130500F801808189830E5F1F4F88248394912C86
S1130510530113C02801F2E04F0E511CF801A080D2
S1130520B18036FE03C0692D70E002C06FEF7FEF2B
S1130530C5010E9423054C018201F32DFF773F2E54
S113054016C0280122E0420E511CF801A080B1809F
S113055036FE03C0692D70E002C06FEF7FEFC50166
S11305600E9411054C01F32DF0683F2E820133FCEB
S11305701BC0822D90E088169906B0F4B60180E283
S113058090E00E942E052A94F4CFF50137FC859162
S113059037FE81915F01B60190E00E942E05211083
S11305A02A9421E0821A91088114910471F7E8C019
S11305B0843611F0893641F5F80137FE07C06081B1
S11305C07181828193810C5F1F4F08C060817181AA
S11305D0072E000C880B990B0E5F1F4FF32DFF762F
S11305E03F2E97FF09C090958095709561957F4F38
S11305F08F4F9F4FF0683F2E2AE030E0A3010E9406
S11306006A05882E861845C0853731F4232D2F7E40
S1130610B22E2AE030E025C0932D997FB92E8F3673
S1130620C1F018F4883579F0B5C0803719F08837EF
S113063021F0B0C0E92FE061BE2EB4FE0DC0FB2D49
S1130640F460BF2E09C034FE0AC0292F2660B22EE2
S113065006C028E030E005C020E130E002C020E11F
S113066032E0F801B7FE07C0608171818281938115
S11306700C5F1F4F06C06081718180E090E00E5FC7
S11306801F4FA3010E946A05882E8618FB2DFF7751
S11306903F2E36FE0DC0232D2E7FA22E891458F432
S11306A034FE0BC032FC09C0832D8E7EA82E05C0FB
S11306B0B82CA32C03C0B82C01C0B92CA4FE0FC0C5
S11306C0FE01E80DF11D8081803321F49A2D997E7D
S11306D0A92E09C0A2FE06C0B394B39404C08A2D07
S11306E0867809F0B394A3FC11C0A0FE06C0B2142E
S11306F088F4280C922C9B180EC0B21460F4B60136
S113070080E290E00E942E05B394F7CFB21418F45F
S11307102B1802C0982C212CA4FE10C0B60180E333
S113072090E00E942E05A2FE17C0A1FC03C088E73A
S113073090E002C088E590E0B6010CC08A2D86786E
S113074059F0A1FE02C08BE201C080E2A7FC8DE259
S1130750B60190E00E942E05891438F4B60180E3B6
S113076090E00E942E059A94F7CF8A94F301E80D45
S1130770F11D8081B60190E00E942E058110F5CF15
S1130780222009F442CEB60180E290E00E942E05B8
S11307902A94F6CFF6018681978102C08FEF9FEFEE
S11307A02B96E2E10C9416060F931F93CF93DF93DD
S11307B0869F8001879F100D969F100D1124C801FC
S11307C00E94F003EC01009729F0A80160E070E0BA
S11307D00E941C05CE01DF91CF911F910F910895C6
S11307E00F931F93CF93DF938230910510F482E02F
S11307F090E0E0919801F091990120E030E0A0E0D0
S1130800B0E0309719F1408151810281138148177A
S11308105907C8F08417950769F4109731F01296B8
S11308200C93129713961C9327C00093980110936E
S1130830990122C02115310519F04217530718F404
S11308409A01BD01EF01DF01F801DBCF211531056C
S1130850F9F0281B390B2430310580F48A819B81FF
S11308606115710521F0FB019383828304C0909389
S1130870990180939801FE01329644C0FE01E20F73
S1130880F31F8193919322503109398328833AC00D
S11308902091960130919701232B41F42091060178
S11308A03091070130939701209396012091040120
S11308B0309105012115310541F42DB73EB7409122
S11308C0080150910901241B350BE0919601F09128
S11308D09701E217F307A0F42E1B3F0B28173907E3
S11308E078F0AC014E5F5F4F2417350748F04E0F88
S11308F05F1F50939701409396018193919302C097
S1130900E0E0F0E0CF01DF91CF911F910F910895C6
S1130910CF93DF93009709F481C0FC0132971382CF
S11309201282A0919801B0919901109781F42081CD
S11309303181820F931F20919601309197012817DE
S1130940390751F5F0939701E093960167C0ED01E3
S113095020E030E0CE17DF0740F44A815B819E013E
S113096041155105F1F0EA01F5CFD383C2834081EB
S11309705181840F951FC817D90759F4888199812B
S1130980840F951F0296918380838A819B81938330
S113099082832115310529F4F0939901E09398019C
S11309A03DC0E901FB83EA8349915991C40FD51FE6
S11309B0EC17FD0761F480819181840F951F0296E5
S11309C0E90199838883828193819B838A83E0E010
S11309D0F0E012968D919C911397009719F0FD0108
S11309E0DC01F7CF8D919C9111979D012E5F3F4FB4
S11309F0820F931F20919601309197012817390790
S1130A0069F4309729F4109299011092980102C068
S1130A1013821282B0939701A0939601DF91CF9134
S1130A200895FC010590615070400110D8F780953D
S1130A3090958E0F9F1F0895DC0101C06D93415066
S1130A405040E0F70895FC0161507040019001109E
S1130A50D8F7809590958E0F9F1F08950F931F933D
S1130A60CF93DF93FB01238121FD03C08FEF9FEF21
S1130A702CC022FF16C0468157812481358142173C
S1130A80530744F4A081B1819D012F5F3F4F31830F
S1130A9020838C93268137812F5F3F4F37832683B2
S1130AA014C08B01EC01FB010084F185E02D099554
S1130AB0892BE1F6D80116968D919C911797019692
S1130AC017969C938E931697CE01DF91CF911F9129
S1130AD00F910895FA01AA27283051F1203181F1AC
S1130AE0E8946F936E7F6E5F7F4F8F4F9F4FAF4F32
S1130AF0B1E03ED0B4E03CD0670F781F891F9A1F45
S1130B00A11D680F791F8A1F911DA11D6A0F711DF8
S1130B10811D911DA11D20D009F468943F912AE004
S1130B20269F11243019305D3193DEF6CF010895EC
S1130B30462F4770405D4193B3E00FD0C9F7F6CF1D
S1130B40462F4F70405D4A3318F0495D31FD4052E5
S1130B50419302D0A9F7EACFB4E0A695979587957B
S1130B6077956795BA95C9F700976105710508955A
S1130B709B01AC010A2E0694579547953795279506
S1130B80BA95C9F7620F731F841F951FA01D08959E
S1130B90052E97FB1EF400940E94DF0557FD07D035
S1130BA00E94310607FC03D04EF40C94DF055095E7
S1130BB04095309521953F4F4F4F5F4F0895909545
S1130BC08095709561957F4F8F4F9F4F08950E9438
S1130BD05306A59F900DB49F900DA49F800D911D69
S1130BE011240895B7FF0C94E7050E94E705821BC2
S1130BF0930B08952F923F924F925F926F927F9240
S1130C008F929F92AF92BF92CF92DF92EF92FF9218
S1130C100F931F93CF93DF93CDB7DEB7CA1BDB0BC4
S1130C200FB6F894DEBF0FBECDBF09942A88398869
S1130C3048885F846E847D848C849B84AA84B98470
S1130C40C884DF80EE80FD800C811B81AA81B9817C
S1130C50CE0FD11D0FB6F894DEBF0FBECDBFED0190
S1130C600895A1E21A2EAA1BBB1BFD010DC0AA1FE9
S1130C70BB1FEE1FFF1FA217B307E407F50720F001
S1130C80A21BB30BE40BF50B661F771F881F991F7C
S1130C901A9469F760957095809590959B01AC01C5
S1130CA0BD01CF010895A29FB001B39FC001A39FCE
S1130CB0700D811D1124911DB29F700D811D112491
S10B0CC0911D0895F894FFCF83
S1130CC80100000000009A0120002538640D090085
S1130CD825386409002538640A0A0053746172745B
S1130CE8696E67205352414D20746573742E2E2EFD
S1130CF80A0D005352414D207465737420636F6D5F
S1130D08706C657465642077697468200A0D2534ED
S1130D1864206572726F727320696E2077726974C9
S1130D286520706861736520616E64200A0D25343E
S1130D3864206572726F727320696E2072657472B2
S1130D48696576616C2070686173650A0A0D000034
S9030000FC
