:100000000C9438000C9442000C9442000C94420072
:100010000C9442000C9442000C9442000C94420058
:100020000C9442000C9442000C9442000C94420048
:100030000C9442000C9442000C9442000C94420038
:100040000C9442000C9442000C9442000C94420028
:100050000C9442000C9442000C9442000C94420018
:100060000C9442000C9442000C9442000C94420008
:1000700011241FBECFEFD4E0DEBFCDBF0E945300DE
:100080000C946A000C94000090BD89B988E18AB98B
:1000900086E880BD08955D9BFECF8CB908955F9B77
:1000A000FECF8CB108951ABA8FE190E00E9444000F
:1000B0000E944F000E944B009BB381E089278BBBBD
:1000C0002FEF8FEF9EE0215080409040E1F700C07D
:0800D0000000EECFF894FFCF11
:00000001FF
